:020000040008F2
:04000000004824B6DA
:200004000000002000200020002000200020002000200020002800280028002800280020D4
:200014000020002000200020002000200020002000200020002000200020002000200020CC
:20002400002000880010001000100010001000100010001000100010001000100010001034
:200034000010004400440044004400440044004400440044004400100010001000100010A4
:200044000010001000410041004100410041004100010001000100010001000100010001EE
:20005400000100010001000100010001000100010001000100010001001000100010001040
:200064000010001000420042004200420042004200020002000200020002000200020002C0
:20007400000200020002000200020002000200020002000200020002001000100010001014
:2000840000200000000000000000000000000000000000000000000000000000000000003C
:2000940000000000000000000000000000000000000000000000000000000000000000004C
:2000A40000000000000000000000000000000000000000000000000000000000000000003C
:2000B40000000000000000000000000000000000000000000000000000000000000000002C
:2000C40000000000000000000000000000000000000000000000000000000000000000001C
:2000D40000000000000000000000000000000000000000000000000000000000000000000C
:2000E4000000000000000000000000000000000000000000000000000000000000000000FC
:2000F4000000000000000000000000000000000000000000000000000000000000000000EC
:200104000000B2BDAABDA2BDFE02B6007680800058A9D2008BA42B4187A73B016F02DC0154
:200114005BC4B60192A372A706A681A71EA743C76DF792A052246502D00092A3522B6105A9
:20012400522D600528410001DC015BC492A061195210601592A35230601292CC5278610339
:200134005258600D27D428AA000192AB72AA06A681AA1EA746C76C03DC025BAB3B016F3F87
:2001440092A352306017DC015BC492A35278610A525861085230D0086403523864F05B8C6E
:200154006FEE58CC06A6D80181A01EA746C76D045B8CD00A6FE4DC01D0105BC46FE092A0B0
:2001640085A9566500A9A9A3A3A7565700A382A9A9A70200F61F561700A3A9A90FAC610BE8
:20017400761F02C4A0A956BF023C6102B2C5020019016F34DC0187A7DA015BC4B60192A3EA
:2001840072A706A681A71EA727C742AB6C0892A39CD085A91EA785A00FA766D240AB6C0854
:2001940092A39CC985A91EA785A00FA766C941AB6C0992A39CA985A91EA792A085A90FA7D0
:2001A40066BFA0A9610592A260028AA1A8C592416104ABA9FF546F02ABA9FE8282BE86BE91
:2001B4008BBE00063ABDB2BDAABDA2BDFE022901BFA90F12FF58615B5CA8917F08A80080A6
:2001C4001E4293A4FFD65CA8BFA90F1661675DA8917F08A8008059A858A993A5FFD65DA8FD
:2001D40093A471A518A8010097A618A400FF18A500FFDC7F92A49EA596A7644D08A9FF01D6
:2001E400623E93A192A0FF3659A858A90642FF35F60E1FA15BA901A3F60A1FA1562D04A2ED
:2001F4002DA336A0FF40F60B1FA1FF339B00FF30FF540CA295A3FF4008A70001F61FFF7796
:200204000920FF4008A70001F61FFF77FF5A92A7652208A9FF016313A9A9FF46917F5BA84D
:200214005AA925A695A7FF960CA295A3BDA90F12FE8282BE86BE8BBE8EBE00069B00FF572E
:2002240008A8FF7FFF5A93A660F228A8800071AA92AB6FEDFF2000006FEAFF5A93A418A8DC
:200234000100FF965CA8A9A908A8FF7F1CA88000CBA46FDD28AD0400FF69561F5616561AFF
:20024400E61002002940761F00002902761B764083C452006142762228A924C028A80008D1
:200254000901611B76C824C029046F0F9B0024A9DF016C04290424A8DF011EA6F7A12486A0
:2002640006A781A109011EA724A96303FF5C3B0459A9DF010009FFEC28A9FFFF28A8FFFF9C
:20027400090161058F3FFFFF76408318761A764083C728A9FFFF28A8FFFF0901610E76FFC2
:20028400FFFF6F06DF01C3BD1EA73E67C5BE24A9DF0124A8FF5860F776408376764082F19B
:20029400A8A9B2BD564800A66004761F02C4C43AC5A6D0006F09D801D9016F1555A9DC01C4
:2002A4006006DF01D80193C761048AA592C460F73AA9560100A692C66003D4006F128EA65C
:2002B4008AA6D10093C06107C5A592C761E555A9DF0160FCB2A9560100A692C661022B8667
:2002C400761F02C48BBEC23A000629022904565FFF5A0642565F1E420200F61F56170042EB
:2002D40006AB56322902762029022904565FFF5A0642FF561E420200F61F5617004256325F
:2002E40029027620FF5A0200F61F56170042A9A97620FF5A0200F61F561700427620770006
:2002F4006F00B2BD761F02C459A99230610D28ABFFFF28AAFFFF28A9FFFF28A8FFFF0FAB87
:200304006103767FFFFF761F02C4C5363E67761F02C4063461041EA792A13E67761F02C495
:20031400063261031EA73E67764082EF8BBE0006B2BDAABDA2BDFE0882A4D1005ACB6F1572
:200324005CAD2901560303A107A3DC8809025CA483A902087640835A064261068A44834661
:200334007640835A5ACBD90192A254A166EAFE8882BE86BE8BBE0006FF581EA6611BC5A643
:200344008EA4DF8192C5968061080200DF81DD01DE8119010FA760F7C5A683A602010FA71E
:20035400DD816708DD810200DD812B8019010FA560FB00065200C5A4610858A9D88188A07E
:2003640027853F87000EFFFE88A90FA6610F5300610D9DFF5CA876BFFFFE92859687000ED1
:20037400FFFE92859687000CFFF8000628ABFFFF28AAFFFF28A9FFFF28A8FFFF0FAB6004D3
:20038400BE00D4006F0928ABFFFF28AAFFFFA9A488C409028AA992A67648243B000692C525
:20039400C4A461136F03DC01C4A492C66003D4000006C5A593C792C655A960055200DE0171
:2003A400DF0160F9530060F00006FF58C5A4610919011EA60200DE817D8719010FA660FBC0
:2003B400000697A69B00F60F1FA6762097A69B00F60F1FA692A87620020019011EA6928483
:2003C400DE0160FE06A600069A01000600060006FFFFB13000000001FFFEB13200000000BD
:2003D4000000FFFEB134000000000000B2BDAABDA2BDFE021EA68D000100A3528750E2AF43
:2003E400004E5B53864CA94206A6FF1800014F961EA76DFB92A5D100D5006107520361036C
:2003F400D0006F068F401200FF2F40008EA992A452016119274240AB6C09ABA928AC001218
:2004040018A907FF9100563B8BA9BFA90F1228AC00123AAB18A907FF9100563BCBAA1AA847
:2004140080006F10274240AB6C05ABA918A81FFF8BA9BFA90F123AAB18A81FFFCBAA1AA81B
:20042400C000CAAB8EA9B2AB0642900018A84000CAABCBAAA34218AB000018AA8000CAABCE
:20043400CBAAA3428BA918AAC000064218AB00009B009001CBAACAABFF586105A0A91AA9AE
:20044400100083A9CCA3000F5BA9A0A9AFA383A9924241A96D04A0A9508083A90642A0AB0C
:2004540018A904009100CAABCBAAA34218AB080018AA0000CAABCBAA83A906A6FF120041C2
:200464008AA906A6B2C4FF1300218AA9FE8206A63AC4FF1200438AA9AAA99B0090FF51F04E
:20047400A0C41EC782BE86BE8BBE0006FF581EA6A344610F8F010000A8A90FA661088F0349
:200484000000A8A90FA656B001A76004B6006F02B602BE64A9A99B00907F87A6564400A9D3
:200494008AA9A9A918A9600091001EA68F402000A0A90FA6610F8F404000A0A90FA661087A
:2004A4008F406000A0A90FA66006DC4B6F04DC326F02DC1976228F45D34C1AC500018F4558
:2004B400E7147685E70856BF03C58D05E70A8F45E700CCC5FFF0500596C5CCC5FF1F5050A9
:2004C40096C5CCC50FFF1AA9A00096C58F45E728CCC5FFF0CAA776C5E70C96C58F45E72424
:2004D400CCC50FF01AA9A00096C58F45E70A56BF62C67685E710CCC5FFF08F45E71296C023
:2004E40056BF04C77CC6CCC5FFF088A9A8A9910F8F05E712CBA697C48F05E700CCC4F8FFD9
:2004F4001AA90A0096C4CCC4FF8F50A096C4CCC40FFF1AA9A00096C4CCC4FFF8500A96C4C3
:20050400761A8F05E71492C4900361FE93C49A009103530256B101A90006B2BDAABDA2BDAA
:20051400E20304BDE20305BDFE048F05D22E82A940C46D7E90009103BDA90F22764087D4FE
:2005240076228F05D20E18C4FFFD761A0203764097E9A2A9900018A88000FF5856B101A1ED
:20053400614176228F05D2222BC4761A92A3A2AB2901907FD26318AB607F18AA000088A9E1
:20054400A2A9BDAB0F26FF4418A90300CAA6964376228F05D20E020318C4FFFE764097E93F
:200554008F45D21492438F05D21698C540C46D0C8F0007D08F45D216A8A96106CCC5000136
:20056400DC81520160FA761AE2030542BFA90F227640847659A952006005000AFFDB520079
:20057400612892A3FFC6903F5BA97622523F60068F05D22292C4503F6F088F05D2229A017B
:20058400CDC4FFC094A3CAA896C476228F05D20E1AC40002761A0228764097E976228F05FC
:20059400D222CCC4FFC0CAA396C4761A6F02D100FE8492A1E2AF05BEE2AF04BE82BE86BE8B
:2005A4008BBE00068F05D22E1EA640C46D4E8F05D20806C49B00900318A9FFFDFF586103F3
:2005B400A3A66F0528AB968028AA00988F05D20EB60306C49B0090030FA760268F05D2143C
:2005C400290106C4FF479B0090031EA702010FA7611002020FA7610A02030FA76103BE00BE
:2005D4006F0B06A6FF3007A66F0506A6FF406F0306A6FF411EA606C49B00907F1EAC5605EB
:2005E40000AB565700A68F05D22206C49B00903FFF58610F06C4560301A9907F88A9020067
:2005F400F61F561700A66F0528AB968028AA0098A9A9000676083B3092BE76260000762F26
:200604000000BE009A009B00F4A90CE2F4A60CE4B600F4A80CE6F4A90CE8F4A80CEAF4A6CD
:200614000CECF4A90CEEF4A80CF0F4A90CF2F4A60CF4F4A80CF6F4A90CF8F4A80CE3F4A606
:200624000CE5F4A90CE7F4A80CE9F4A90CEBF4A60CEDF4A80CEFF4A90CF1F4A70CF3F4A618
:200634000CF5F4A80CF7F4A90CF9F5A90CE05001F4A90CE000061EA718A9FFE0FF30C4445E
:20064400FF1A001F8AA992A7901F2DA90201563BFF5A762292A642A96D0883A4A9A9FF5583
:20065400DD12C0C5C1CD6F0783A492AB93AADD1298C599CD92A640A96D0883A492AB93AA84
:20066400DD0C98C599CD6F0783A4A9A9FF55DD0CC0C5C1CD92A641A96D07A9A9DC10FF5563
:20067400C0C4C1CC6F06DC1092AB98C492AA98CC761A00065203620A5203612352006131A7
:2006840052016128520261206F07520461145205610C52066103020000068F05D00A28AC9A
:20069400001806C4562200068F05D00A06C40EA890FF00068F05D00A290106C4FF476FF953
:2006A4008F05D0086FF48F05D008290106C4FF4C6F0D8F05D008290106C4FF4790070006FD
:2006B4008F05D008290106C4FF4590030006FF5A76083B3092BE900193AA80A95320670E78
:2006C400530D68239A00531056B901A99DFF2DA8FF6620A8CAA823A96F1892ABFFC79CFF74
:2006D40088A928A8067195A6560301A85CA992AB9B0190FF9CFF2DA99A01FF662DA698C444
:2006E400FF6720A9CBA923A892A7520161047608293092BE0006B2BD1EA6AABD2DA50648B0
:2006F4009B0090FFFF5A86A906A6FF18000183A91AAA00108D000100A9C506A6FF180001B0
:200704004F968BA96DFB06A68D00010C8896FF14001183A906A69B00900F7640890692AC37
:2007140061048F0300006F02D400A8A9AAABCBAACAAB51841EC186BE8BBE0006AABD86A91C
:2007240076222901FF479B0090FF1EA72DA70203D01A563BFF55FF5AAAA90EA8FF1A001F7C
:200734008AA983A992AB93AAC0C4DD1AC1CCA9A9CEC5CFCD1EA6AAA9FF419B009003563B2D
:20074400FF5A06A6CAABCBAA1E94AAA99B009003563B98C499CC761A86BE000683A90644D1
:200754009B0090FF1EACFF5AA0A9FF1500091EA61AAA00138D000120A9C6A0A9FF150009B4
:200764004F951EA76DFB8D00012C88954FA66D039A000006A0A9FF14001383A9CCA6000F6C
:200774000EA976408930ABAB1AAA00049A01A9C74FC76DFF00061EA6B2BDA2BD80C62D4940
:2007840058475B4892A7504196C6020F89A5FF3FFF5ACDA4003FCCAC0003FF85CAA88AA6C6
:20079400CDA0000FFF9758A818A7FFBFDC0C98A0CCA30007FF8B0EA9AFA0CAABCBAA1EC4C4
:2007A40040A76C0318A7FFFE7FC682BE8BBE000676228F45D2328F05D23218C5FFFE18C491
:2007B400FFFD761A7640888376228F45D2088F05D20818C5FFFC1AC40001761A6F117622C5
:2007C4001AC40002761A7640888376228F45D2088F05D20818C5FFFC1AC40001761A8F0555
:2007D400D22E40C46DED00067622FF581EA6611F8F010000A8A90FA661178F020000A8A97E
:2007E4000FA661098F030000A8A90FA66016764088A16F138F45D2088F05D20818C5FFFC73
:2007F4001AC400026F0A764087A86F078F05D20818C4FFF718C4FFFC761A000683A97622C0
:200804002901560302A5A0AB901F16A9FF42FF5A92AB2BAA900327A9A0A918A9FFE007AB47
:200814000914FF30FF1A001F83A9020F563BFF55C0C5C1CD0EA4563B98C599CD761A00066F
:2008240083A976222901560301A5A0AB901F16A9FF43FF5A92AB2BAA900127A9A0A918A9F6
:20083400FFE007AB0901FF30FF1A001F83A90203563BFF55C0C5C1CD0EA4563B98C599CD73
:20084400761A00061EA692A6901F2DA90201563BFF5A06A618A9FFE0FF30FF1A001F1EA619
:20085400762292A4520161088AA6A9A9FF55DC14C0C4C1CC6F078AA692ABDC1498C492AAB8
:2008640098CC761A00061EA618A9FFE0FF30FF1A001F1EA792A6901F2DA90201563BFF5A40
:20087400762292A4520161088AA7A9A9FF55DC0AC0C4C1CC6F078AA792ABDC0A98C492AAAA
:2008840098CC761A00068F0007D0A8A9764097E9BE038F45D23076C5D2308F0001FFA8A9B9
:200894000FC567051ACD00010FC768FD8F05D23028A903FF54C4610354C460FF000EFFEF89
:2008A400000676228F45D2328F05D23218C5FFFE1AC40002761A7640888376228F45D208D5
:2008B4008F05D20818C5FFFC1AC40001761A8F05D22E6F02762540C46DFEFF690006C444EA
:2008C4008F4080008AA9A0A90FA661118D000100A8A9FF1800014F9483A96DFB06A69B006D
:2008D40090FF51081EC54FC56DFF000692E40006B2BD8BA9D0401AC1140156BF1A91D040C4
:2008E4009291903F522560FC76221AC18000761A0201764097E91AC100408BBE0006762271
:2008F40028A90D068F408943BEDC5CA99C02A0C4000EFFFD7680894976C00D248F0089472C
:200904008F400D26C2C7A8C5761A0006FF5861131901BE001EA7A0A961088EA406A65601F6
:2009140000A092C03CC5DD010200DF81DE0119010FA760F20006764085A28F05D22CFF5AC1
:2009240006C49B009007FF58610A06C4560301A9900F88A90200F61F561700A6A9A90006D6
:20093400FF58610B19011EA6C6C59684DE810200DD0119010FA660F9000683A9CCE5F3FF21
:20094400CAA496E50006F5A90CE076256F0076256F0076256F000000B2BDAABDA2BDFE14B5
:200954005CADDC935CA4761F02C4F6092B84A324A9A9FFE100BCA9A48F409A827640838F4D
:20096400A8A9606BA9A48F409A867640838FA8A96020A9A48F409A8A7640838FA8A9FFE149
:2009740000A68F04800006C48F009A9076408FBD8F0480040EC48F009A9E76408FBD8F04E0
:2009840080080EC48F009AAA76408FBDFFEF00930626FFE100898AA9D5009A107640810124
:200994005DAD18A81FFF761F02C482A9DD938A225DA5764094C85AA9B600BE005208D401FF
:2009A400D50056B608A202011E42A244C346C248768480007A4906A6764083D68F04800041
:2009B400BE01A8A95CAD5DA2C242DC935CA4764086EB8F009ABAA2A976408FBD92A261505C
:2009C4005CADDC9359A4DA810E818F009AE676408FBD000AFFFB6F44062661458AA9D50012
:2009D4009A10764081015DAD761F02C48BA9DD938A225DA5764094C818A107FF59A15AA99C
:2009E400B600BE005208D400D50056B608A202011E42B244C346C248768480007A4906A671
:2009F400764083D68F048000BE01A8A95CAD5DA2C242DC935CA4764086EB8F009AEAB2A9A1
:200A040076408FBD92A2610C5CADDC9359A4DA810E818F009AE676408FBD000AFFFB8F002C
:200A14009B126F068F009B166F038F0099F876408F5FFE9482BE86BE8BBE0006B2BDFE4C0C
:200A24005CADDCCC5CA4761F02C4F63F2B84A324A9A9FFE100B5A9A48F409B307640838F65
:200A3400A8A9FFE0008DA9A48F409B367640838FA8A96049A9A48F409B3A7640838FA8A92C
:200A4400FFE1009E9A007640867A8F009B420EA976408FBD9A017640867A8F009B560EA917
:200A540076408FBD9A027640867A8F009B6A0EA976408FBD9A037640867A8F009B7E0EA92F
:200A640076408FBD9A047640867A8F009B920EA976408FBD9A057640867A8F009BA60EA9CB
:200A740076408FBD9A067640867A8F009BBA0EA976408FBD8F05D00C06C48F009BCE764085
:200A84008FBD6F615CAD8F409BE20213DCCC5CA47640833C28A996809B98764085A28F0029
:200A94002710FF5A0200F61F561700A45CADDCC559A4A9A98AA1764094FB5CADDCCC5CA470
:200AA40076408F5F5CAD8F409BF60213DCCC5CA47640833C28A996809B987640891B8F00F0
:200AB4002710FF5A0200F61F561700A4A9A98AA1764094FB5CADDCCC5CA46F235CADDC8CF4
:200AC40088A4767FFEFA5CAD8F409C0A0220DCCC5CA47640833C5CAD924CDCBA5CA4764009
:200AD40095605CAD924BDCB65CA4764095605CAD924ADCB25CA4764095606FDD8F0099C098
:200AE40076408F5FFECC8BBE0006B2BDFE205CADDCA05CA4F61F2B848F009C2A76408F5F66
:200AF400761F027DBE0A9223FFC827A90EABF60F1FA69B0A00C083B69B3095A9976092AB5C
:200B04009B0A00C083B69B3095A9CC2301E0FFC480A928AB000A975F56BF2E5E0EA7F60F40
:200B14001FAB9C309B0A965D92A700C083B69B3095A9CC23001F80A9975C56BF2E5B0EA7DB
:200B2400F60F1FAB9C309B0A965A92A700C083B65CADDCA05CA49B302B5895A99759764098
:200B34008F5F02C6764097ED5CAD8F409C340220DCA05CA47640833C8D4703CC28A905007D
:200B440028A801FF8F05D00A0FC4611B28A801FE0FC4611528A801FB0FC4610F28A801F715
:200B54000FC4610928A801F60FC461039A786F0A9A306F089A316F069A356F049A386F02B5
:200B64009A39964F06D4610D02010FD4610802020FD461039A786F069A426F049A416F02B5
:200B74009A305CAD9649DCA05CA476408F5F02C6764097ED8F009C5406C176408FBD8F00B6
:200B84009C5E76408F5FFEA08BBE0006B2BD8D40A010AABDD2098F009C9C76408F5F8AC1E2
:200B940076408F5F8F009C9E76408F5F8AD176408F5FD906000AFFF186BE8BBE0006761F30
:200BA40002C40624B2BD61088AA9D5009A0A764081018BA96F02D10A8F009CA476408F5F92
:200BB40092A1764097AE761F00301A040010764097A28BBE0006761F02C40624B2BD612845
:200BC4008AA9D5009A10764081018BA98F008000A8A90FA1661D8F014000A8A90FA1660B1E
:200BD4008F080000A8A90FA166138F0A0000A8A90FA1690E8F009CB6B2A976408FBD9A0AFD
:200BE400764097AE7640960CB2A9764097D18BBE0006761F02C40624B2BD611F8AA9D5005A
:200BF4009A10764081018BA98F084000A8A90FA1660F8F090000A8A90FA1690A761F02E4F7
:200C0400B230764096F18F009CDEB2A96F0B8F009D0276408F5F6F08761F02E48F009D1AC9
:200C1400063076408FBD8BBE0006B2BDAABDA2BDFE02761F02C4062461378AA9D5009A1035
:200C240076408101FF581E42612B761F02C40626610E8AA99A10764081011BA901006604FB
:200C3400520868056F0528A901006F029A809CFF8B42D3005AA9CCA30007600706428F0016
:200C44009D3A0DA376408FBD0E818F009D4676408FBDDB01000AFFF18F009B126F038F00F1
:200C54009D4C76408F5FFE8282BE86BE8BBE0006B2BD8D40B1408AA1764093678F009D5C10
:200C640076408F5F28C9FFFF6F0C8AA17640929E76229B559AAAF4A87025F4A97025761A92
:200C740092C960F49A0A764097AE92D161228F009D8E76408F5F8F009DA876408F5FB2A9FB
:200C8400FF1102458AA976408F5F8F009DB876408F5FB2A9FF1102778AA976408F5F2901B5
:200C9400761F02D98F009DC82501AF0276408FBD761F02BB2B062B042B058BBE761F02C47D
:200CA4002B062B042B050006B2BDAABDA2BDE20304BDFE0A761F02C40624616E8AA9D5005B
:200CB4009A10764081019B00761F02C4901F8BA9062661098AA99A10764081019B00901F70
:200CC40086A96F02D200B2A90FA2690286A1FF3BFF1F001082A9AAA903A10901190186A923
:200CD4008F009DE2B2A976408FBDBDA30F2277007700770077008F009DF6BFA90F227640B7
:200CE4008FBD9A06BFA40F22767FFF009649767FFF10520260FD92496029767FFF12FF5827
:200CF40060225DAD8F000800A8A9DD88BFA40F225DA5767FFF02520060068F009E0E7640D2
:200D04008F5F6F060EA98F009E1676408FBDA2A9DA81FF1C0001D90182A9020019010FA2DC
:200D140060C06F0E8F009E326F040EA98F009E5076408FBD6F058F00987E76408F5FFE8AD5
:200D2400E2AF04BE82BE86BE8BBE0006B2BDAABDA2BDE20304BDE20305BDFE08761F02C4A6
:200D3400062461098AA9D5009A0A7640810190015AA96F02D2000EA28F009E6E76408FBD03
:200D4400D30088A22901560304A25AA925A6BDA90F26D10092A194A28F009E880EA97640A4
:200D54008FBDBFA90F268F009E960DA3FF1F0010BDA90F2276408FBD5DAD8F000800DD8856
:200D6400A8A95DA5BFA40F22767FFF02520060068F009EA676408F5F6F0B8F009EB00648BE
:200D740076408FBD8F009ECA064676408FBDD90108A3100092A1521068CEFE88E2AF05BEDE
:200D8400E2AF04BE82BE86BE8BBE0006B2BDAABDA2BDFE02761F02C4A324A9A9FFE100831D
:200D9400A9A48F409EDA7640838FA8A96043A9A48F409EE07640838FA8A96019A9A48F40A7
:200DA4009EE67640838FA8A9600DA9A48F409EEC7640838FA8A96166764096F18F009EF243
:200DB4006F63764097448F009F0C6F5E8A26A8A9615D0622615BD5009A107640810190FFCC
:200DC400761F02C459A99A108A227640810188A9CDA100FF58A88F00B8400EA67E948F00AA
:200DD4009F2876408FBD8F009F3A0EA176408FBD6F3D0626613B8AA9D5009A1076408101BF
:200DE400761F02C490FF59A9062260039A006F058AA99A107640810190FFD300520856B88B
:200DF40080A99CFF5AA992A394A193A9964153FF6716CDA3000760060EA98F009F587640FC
:200E04008FBD924190FF58A98F00B8400E948F009D4676408FBDDB01000AFFE78F009B127A
:200E14006F038F0097FC76408F5FFE8282BE86BE8BBE0006B2BD8BA4AABD92D16159B2A9B6
:200E24008F409C9CFF1200418AA976408290761F02C4A8A9A8286127D4008F409C9C7640C5
:200E34008290761F02C4A8A9A824611DD4008F409C9C76408290761F02C4A8A9A826611305
:200E4400D4008F409C9C76408290761F02C4A8A9A8226109D4008F409C9C76408290761FD3
:200E540002C4A82087288D80A0102BABD00B83C2ABA47640838FA8A9600792ABDA069C0105
:200E640027A90008FFF692AB520C670506E261031EA73E673100761F02C40200D400B600CC
:200E7400BE002BD1A9241E20A828C326C22286BE8BBE000692DC520260099A009B408F003A
:200E84007F021EC40262764097ED000692DC520260090262764097ED9A009B408F007F04F7
:200E94001EC40006B2BD8BA4AABDA2BD82A586C176408E7AD4006F1B76229B559AAAF4A800
:200EA4007025F4A97025761A6F1776229B559AAAF4A87025F4A97025761A47E26CF7D0092D
:200EB40092C59392DC01D0093CA89792A2A90DA483A992C560F346E26CE08AA176408E86A4
:200EC40082BE86BE8BBE0006B2BDAABD86A98F048000A8A9A2BD0FA261068F04A000A8A9D7
:200ED4000FA260039A0160068F009A2A02EF76482080AAA98D4003E8098882A98F0480006D
:200EE400A8A90FA261068F04A000A8A90FA260039A0160088F4004B28F009A3CA0A97648F9
:200EF400208006C341A96C080212764097EDD98192A160E56F22AAA98D4003E8099C82A98B
:200F04008F048000A8A90FA261068F04A000A8A90FA260039A0160088F4004CC8F009A3CB2
:200F1400A0A97648208006C341A96C070212764097EDD98192A160E582BE86BE8BBE0006FD
:200F2400AABDFE12B6029651D50086C431000287D400C3421E44A046AAA9D500A94856BF6F
:200F34000149764083D65CADBE02D501DC91AAA9C2425CA4764086EBAAA976408EC4FE92CF
:200F440086BE0006B2BDAABDD00086A5A2BD82A46F1176229B559AAAF4A87025F4A970253E
:200F5400761A9B018AA395A0929259A876408F2058A1929260EF82BE86BE8BBE0006761F91
:200F640002A0920083A45202611052046109520861048F00ACC06F0B8F00AF006F038F001A
:200F7400AA8076408F4200068F00A84076408E920006B2BD8BA4AABDA2BD5BA986C17640EE
:200F84008E7A92A36F097622BE559BAAF4A67025F4A87025761A47E26CF7D0099392D00955
:200F94003CA897926F0976229B559AAAF4A87025F4A97025761A46E26CF78AA176408E8679
:200FA40082BE86BE8BBE0006761F02A093005302611053046109530861048F00ACC06F0BD4
:200FB4008F00AF006F038F00AA8076408F2000068F00A84076408F790006A2BD08AD00807A
:200FC400C5A45CAD08A4FF802BAB5DA48AA758AB82A9BE7F93C46111535F6108B60092A031
:200FD40056B101A792A772AB6F0492A09C0158A9DC019785000EFFF09B6492AB567400A811
:200FE4002BC527A992A0520862089B01567200A858A9520062036F1ED0085CAD560302A00A
:200FF40088A09CFC08A4FF803B012DA9DE810EA481AB8AA9B50D00A6A2A976C0A069562206
:201004009B00900F560100A792C7968492AC9CFC2DA95CAD08A4FF805CA476408F5F08ADE8
:20101400FF8082BE0006D00172A0B2BD8F40800088A92F95CDAA00978D0002042B9460544D
:2010240052086127520D60748D40020456BF019C9A012794D08456BF0D9494AB80A98D00BD
:201034000204A8A90DAB83A9D1847F948D00020656BF0A9D80949A0194A79694A8A90DA78F
:2010440083A98D4001042B9D28D4FFFF2B946F5080949A0194A788A9A8A90DA783A98D4035
:201054000204D0847E9C56BF0895889C9A0194A6969CA8A90DA683A9D08456BF2095809CC1
:201064009A0194A7969CA8A90DA783A9D0848D40020656BF0895929C612BA8A9FF11010339
:2010740083A90BC56F25809428AB000193AB8D40020495A727A8A8A93F9C0DA783A9D08468
:201084008D4002069B017E95279C8D00010495AB979CA8A90DAB83A9CCAA0001FF8494A697
:201094009695A8A9FF11010383A918C5007FA8A9FF1200818AA918C4007F8BBE0006B2BDF5
:2010A400AABDFE0A86A45CAD02031E42DC8A5CA406C27640874E52006132AAA9884A8D00D5
:2010B40002050D928AA97EE493929D018F00B140917F979293CC60208AA292A676409013C9
:2010C4009A008D0002045492671A7622BE559BAAF4A67025F4A87025761A88A99A0194A692
:2010D40059A9AAA90DA68AA9D08492948AA276408F2092A16FE792A676409354FE8A86BE8C
:2010E4008BBE0006761F02A043016C0756BF08008F00AF007640909F0006761F02A04201EF
:2010F4006C0756BF04008F00AA807640909F0006B2BDAABD86A4A2BD82C246EB6C3B8D00A4
:201104000205CCFB00FF9B01279288A995AB9792AAA90DAB8AA9AAA9FF10020583A97EE4DA
:201114008F00B14018C5007F93CC530060208AA292A6764090139A008D0002045492671A5C
:201124007622BE559BAAF4A67025F4A87025761A88A99A0194A659A9AAA90DA68AA9D08436
:2011340092948AA276408F7992A16FE792A67640935447EB6C0E92EB92EB92EB021218CB13
:20114400FFDF764097ED1ACB00208AA276408E8682BE86BE8BBE0006761F02A041016C07B9
:2011540056BF02008F00A840764090F80006761F02A040016C0756BF01008F00ACC07640F7
:2011640090F80006B2BDAABDA2BDE20304BDE20305BDE20306BDFE0AC5A486A48D000488FF
:201174002B49DF068892BDA70F2AFFEF0119BFA90F2A0D491EA792C7523A611C520DFFE1E6
:20118400010E520AFFE1010B5220FFE101085209FFE101058D0006849A01279294AB969286
:20119400AAA90DAB8AA98D40058492C7969CFFEF00F38D0006849292520AFFE900F08D003F
:2011A400058492928D000585FF699392764095B68D4005868D00058788A993928D00050080
:2011B400929A7E92764095B65BA98D00058892928D0005899392764095B68D40058A8D0072
:2011C400058B939238A38D0005029692929A764095B68D000684939288A99DF68D00050000
:2011D400FFD080922BAA27A88D0005030EA77E920FABFFE000AED3006F38560302A3BE0A95
:2011E40072A69648B60BAAA90DA68AA9934873A78D0005848894AAA90DA78AA992A693943B
:2011F400764095B659A9BE08924872A6B609AAA90DA68AA9934873A78D0005848894AAA9AE
:201204000DA78AA992A69394764095B6560308A9CAA188A9AAA90DA38AA9DB018D400504F5
:201214008D0005007E9C809292A7FFC088A954A366C58D00050392926104520461616F68A4
:201224008D00050129018D40068625928F0800008D000502AF928D0006861E9AA392A8A91A
:201234000FAB66568F0A0000A8A90FAB69513B10AAA97E48FF120141BDA90F26BDAB0F22DB
:20124400CCA7FFFE613B92489CFFFFC19C0161365BA9D100DB815CAD9B00BE03DC875DA41B
:2012540092A894A158A9924854A06905BFA40F2692946F0328A9FFFF9D019685000EFFF217
:201264005DADBFA90F220DA1FF69DD878AA902005DA51E422B439A049B00767FFF04964A37
:20127400767FFF10520161FD924A6008767FFF12FF586004D904000BFFD029106F09AAA9E5
:20128400FF1201411EA78D00050192C796928D4006842B9A8D00048888920A4992A65449A7
:20129400FFE6FEE7FE8AE2AF06BEFF69E2AF05BEE2AF04BE82BE86BE8BBE0006B2BDAABDDB
:2012A40086A48D000483889292A6601902648D0004860F92FFE700A602001E929A43764032
:2012B4008FA48D0004899A01939294A896921BA80258FFE900972BCAFFEF0094020A8D00FD
:2012C40004860F92FFE7008E92A6520161735202686F520568665285610780A68F000405BF
:2012D400A8A90FA7606592EA80E2F0FF90FF0EA9FF5ACCA700FF5CA9A9A90FA4605992A655
:2012E4008D4004888D0004888AA29CFB969A92928D0004849C02DC067F927640958583A2C6
:2012F4005200DD06604592C2602E8D00048492926051AAA9FF1102458AA902647640833C7C
:20130400AAA9FF1102458AA9764083BC07A283A9AAA9FF1102778AA9DD0702107640833CA8
:20131400AAA9FF1102778AA9764095A08D0004FE1E929A0676408FA49A4376408FA428C247
:20132400FFFF6F288D000484929260072BC22BCA28D2FFFF9A066F1C8AA2764091626F1417
:2013340092DA5218610E92E25218600C6F0A9A156F0F92DA52046108524161035261600A25
:201344002BCA2BC26F079A0676408FA49A4376408FA48D40048302008D0004862B9A1E9200
:2013540086BE9A008BBE0006B2BD8D0004835D949B0188A995A59794A8A90DA583A9310046
:201364008D4004867EDDA99C92948BBE0006B2BD8D0004892B948D4005008D0004832B9410
:20137400BE008D0004842BC42BD49A002B9C2B948D0005012B948D0005022B948D000685BB
:201384002B948D0006842B948D0005032B948D000486C2948BBE0006761BFFF00005ABBDB7
:20139400A8BDA0BDC2BDC3BDE20000BDE20300BDE20301BDE20302BDE20303BDE63006002F
:2013A400FF69294256167640914C28A90100F4A90CE1E2AF03BEE2AF02BEE2AF01BEE2AF77
:2013B40000BEE28000BEC5BEC4BE83BE8ABE87BE00033B30FFF176177602761BFFF0000580
:2013C400ABBDA8BDA0BDC2BDC3BDE20000BDE20300BDE20301BDE20302BDE20303BDE6309D
:2013D4000600FF69294256167640915728A90100F4A90CE1E2AF03BEE2AF02BEE2AF01BEC7
:2013E400E2AF00BEE28000BEC5BEC4BE83BE8ABE87BE00033B30FFF176177602761BFFF0C4
:2013F400ABBDA8BDA0BDC2BDC3BDE20000BDE20300BDE20301BDE20302BDE20303BDE6306D
:201404000600294256160201761F02D756010006761F02C45601002EBE32A32E0200F61F65
:20141400561700A6FF5860069A009B808F007F061EC49A01F4A90CE1E2AF03BEE2AF02BE75
:20142400E2AF01BEE2AF00BEE28000BEC5BEC4BE83BE8ABE87BEFFF176177602761BFFF0A1
:201434000005ABBDA8BDA0BDC2BDC3BDE20000BDE20300BDE20301BDE20302BDE20303BD3D
:20144400E6300600FE02FF69294256168F04A010C4C402030FA6610A8F008000A8A90FA628
:20145400600E8F04A00492C46F0A764090E202038F04A0001E42A8A9764088BF8F04A0586B
:2014640028A901001AC40001F4A90CE1FE82E2AF03BEE2AF02BEE2AF01BEE2AF00BEE28009
:2014740000BEC5BEC4BE83BE8ABE87BE00033B30FFF176177602761BFFF00005ABBDA8BD12
:20148400A0BDC2BDC3BDE20000BDE20300BDE20301BDE20302BDE20303BDE6300600FE02A3
:20149400FF69294256168F048010C4C402030FA6610A8F008000A8A90FA6600E8F0480048F
:2014A40092C46F0A764090ED02038F0480001E42A8A9764088BF8F04805828A901001AC445
:2014B4000001F4A90CE1FE82E2AF03BEE2AF02BEE2AF01BEE2AF00BEE28000BEC5BEC4BEA6
:2014C40083BE8ABE87BE00033B30FFF176177602B6008EA593C492A89C9F521966029DE0D2
:2014D400533088A868265339690853416822534666209DC988A86F02DEB040A76D0B560330
:2014E40004A688A992A7FFC027A93AA90DAB83A96F0A92A7FFC027A93AA90DAB83A993A63D
:2014F400CBC588A8DF0192A7DC017EC5521068D392A7FFC00006FE02FF588EA964032BAC78
:201504006F05FF5428ACFFFF8EA98F402710A04200C082C51EA6020A1E4206A600C082D416
:201514008F4003E89C3096C43AA9A04200C082C51EA6020A1E4206A600C082D488A9026482
:20152400DE307ECC1E423AA900C082C51EA6020A1E4206A600C082D488A956BF2EDC020AB7
:20153400DE307ED41E423AA900C082C51EA6020A1E4206A600C082D488A9020ADE307EE44E
:201544001E423AA900C082D483A4BE039B009C3096EC92C55230600BD00173A09294522E8F
:20155400610693A056BF2085000EFFF592AC61075300610558A8D88156BF2D94FE8200060D
:2015640027A9BE640EABF60F1FA69B0A00C083B69B30B60A95A997C40EABF60F1FA79B0A07
:2015740000C083B69B3095A997CC92AB9B0A00C083B69B30BE0195A997D492C452306005A7
:2015840056BF2084000EFFFB00065200B60083A461165CA9DC81560308C5F2A7BE074FA7FE
:201594006D0492A7FF806F05560301A71CA9102180A9000EFFF6DD01000CFFEF92A7000660
:2015A400B600BE045DC492A55230680F5239660D06A7FF32DC01FF5A06A7FF3007AB0DA50C
:2015B40019301EA7000EFFF006A70006FE1258A95CAD2FA893A0DC915CA453612BAB76C008
:2015C400A058F61024846804537A6602D8A093AA53616806537A660492AA9CE02FA95DAD18
:2015D400DD915DA5D400BE0F80850EA00FA76004560304A472ABDC01000EFFF85DADDD91A1
:2015E4005DA5D400BE0F80850EAA0FA7600492AB94A427A9DC01000EFFF8FE9292AB000673
:2015F4008F00ACC076408E1A8F00A84076408E1A0006761F02C41B2AFFFF60058F00AA80E7
:2016040076408E1A761F02C41B2BFFFF60058F00AF0076408E1A0006761F00301A040010CF
:2016140076083B3092BE7622F5A970295068F4A97029761A0006B2BDAABDA2BDE20304BD4F
:20162400FE029A009B808F007F048D80ACC08D40AF00768840001EC4AAA9FF120041BDA9BF
:201634000F22AAA9FF12004183A9B2A9FF12004182A9B2A9FF1200418AA9C242F67F2B85B3
:201644009A64F67F2B84764097AE761F02C502002B01761F02D71E060232761F02D70F0696
:201654006911BFA40F228F409FAA7640838FA8A9604A8AA38F409FAA7640838FA8A961EDE1
:201664006F425CAD9AF0DC825CA47640973D8F084000A8A90F4266258F090000A8A90F42FC
:2016740069208A42020019010FC460068F009FB076408F5F6F289A01764097AE761F003038
:201684001A04001076083B3092BE7622F5A970295068F4A97029761A0642764097D16F13AA
:201694008F0840008F484000A842A0A98F009FCA764097F18F484000D4F0A0A9764096D699
:2016A400764096F10200761F02D78F009FF81E0676408F5F76408AE57622F5A97029CCA922
:2016B400FFBF5028F4A97029761A8AA276408E1A8F00A84076408E1A761F02C41B2AFFFF1D
:2016C40060058F00AA8076408E1A761F02C41B2BFFFF60048AA176408E1A76229B559AAA32
:2016D400F4A87025F4A97025761A6FE058A41EA6CCA000FF58A98F00B84092A6C29400066D
:2016E400B2BD9A068F083000767FFF0059A9767FFF10520260FD92A16003767FFF128BBE80
:2016F4000006B2BDAABDA2BDFE04761F02E092009C01900F88A99600560308A658A908A0DD
:20170400010018A00FFF8F0830FF88948F00FFFFA8A90FA66103764096E0D0FF8D80B84025
:20171400D3002B925CA3761F02E05603080088A9A8A90DA6BE0083A2FF1C0083C2428AA961
:201724002B439A089B00767FFF0459A9767FFF10520161FD92A1600A767FFF12FF586006EB
:20173400DB081BA30100DA0868DE761F02E09200FE8482BE86BE8BBE000690FF58A98F400E
:20174400B84006951EC40006761F02E01800000FBEFF76C0B840D5005603080027A9B509BD
:2017540000A65CA5A8A90DABFF1C00838AA9DD0192C496879A00000690FF58A98F40B840AC
:20176400929596C4000683A9C4447622D0200695D020910050031E95D0200695D0209100F4
:20177400500C1E95D0240695D02450011E95A0A9FF1700031EA7A0A918C7FFFDFF1700035B
:201784001EA72901560308A418C7FFFEA3C518ABF0FFCBAACAAB1EC5A0A9FF1700038AA9F9
:20179400A0A9FF17000383A91AC400021AC5000106C618A9FFF8500A1EC6761AF607770021
:2017A400FF690006FE027622761F01C092299007964150389629761AFE820006B2BD520082
:2017B40059A9611E76229B559AAAF4A87025F4A97025761A8F00270EA8A9764097ED7622EE
:2017C4009B559AAAF4A87025F4A97025761A8F00270EA8A9764097EDD98192A160E48BBE75
:2017D400000628AD04002BBD2BBD1EBD000756331EAC58A959A95AA95BA95CA95DA988A9CB
:2017E40080A9761F00002BBD28BD0A0B760076130006190156C3FFFF0006190156C3FFFFD8
:0817F400000676408FBD0006DF
:2017F8000065006500700072006F006D000000000065006500700072006F006D0020005B46
:20180800006C006F00610064007C0073006100760065007C0072006500610064007C0077EA
:201818000072006900740065005D0020005B0061006400640072005D0020005B00640061EC
:2018280000740061005D0020004F00700065007200610074006500200049006E0074002E05
:2018380000200045004500500052004F004D002E000D000A000000000065006D00700074AD
:20184800007900000065006D0070007400790020005B0030007C0031005D00200043006858
:2018580000650063006B00200066006C00610073006800200073006500630074006F00725F
:2018680000200069007300200065006D0070007400790020006F00720020006E006F0074A3
:20187800002E000D000A0000006500720061007300650000006500720061007300650020CB
:20188800005B00730074006100720074005D0020005B00730074006F0070005D0020004557
:20189800007200610073006500200066006C00610073006800200073006500630074006F19
:2018A80000720073002E000D000A00000079006D006F00640065006D000000000075007086
:2018B80000640061007400650020007500730065007200200041005000500073002E000DE4
:2018C800000A0000006D0065006D007200640000006D0065006D007200640020005B0068E9
:2018D8000065007800200061006400640072005D0020005B0068006500780020006C00654A
:2018E800006E005D002000530068006F00770020004D0065006D006F00720079002E000D80
:2018F800000A00000065006E00740072007900000065006E0074007200790020007B00685F
:201908000065007800200061006400640072007D00200047006500740020006F0072002049
:2019180000530065007400200075007300650072002000610070007000200065006E0074DC
:2019280000720079002E000D000A00000067006F0074006F000000000067006F0074006FFD
:201938000020005B00680065007800200061006400640072005D00200074006F002000652F
:20194800007800650063007500740065002E000D000A0000007200650062006F006F007421
:2019580000000000007200650062006F006F00740020005B00640065006C0061007900203A
:20196800006D0073005D00200052006500730074006100720074002000780062006F006F45
:201978000074002E000D000A0000000000680065006C00700000000000680065006C007044
:2019880000200049006E0066006F002E000D000A0000000000760065007200730069006FB6
:20199800006E000000760065007200730069006F006E00200064006900730070006C00611E
:2019A800007900200062006F006F0074006C006F006100640065007200200049006E00661E
:2019B800006F002E000D000A000000000069006E0066006F000000000069006E0066006F03
:2019C8000020005B0066006C006100730068007C0063006C006B007C00640065007600699C
:2019D80000630065005D002000530068006F0077002000730079007300740065006D002024
:2019E8000069006E0066006F0072006D006100740069006F006E002E000D000A00000000F4
:2019F80000630061006E000000630061006E0020005B007300740064007C006500780074D8
:201A0800007C007300650074007C0073007400610074005D002000430041004E00200064EB
:201A1800006100740061002000730065006E00640020002600200072006500630065006940
:201A280000760065002E000D000A0000002E002E002F007300720063002F0063006F006E3C
:201A38000073006F006C0065002E0063000000000044003A002F00450045002F0054004947
:201A4800002F00430032003000300030002F00430032003000300030005700610072006587
:201A5800005F0031005F00300030005F00300036005F00300030002F0064007200690076B7
:201A680000650072006C00690062002F0066003200380030003000340078002F0064007240
:201A78000069007600650072006C00690062002F00630061006E002E006800000073007483
:201A880000640000006500780074000000730074006100740000000000430054004C003DAD
:201A980000300078005F005F005F005F005F005F00000000002000450053003D00300078AF
:201AA800005F005F005F005F0000000000200045005200520043003D00300078005F005FB3
:201AB800005F005F000D000A00000000002000730065006E006400200045007800740020FE
:201AC80000440061007400610020004D006500730073006100670065002000490044003DB5
:201AD80000300078005F005F005F005F005F005F005F005F00200044004100540041003DD7
:201AE80000000000005F005F00200000002000730065006E0064002000530054004400200B
:201AF80000440061007400610020004D006500730073006100670065002000490044003D85
:201B080000300078005F005F005F005F00200044004100540041003D00000000000D000A0B
:201B180000000000002000630061006E00200073007400640020005B00490044005D00206B
:201B2800005B0044004100540041005D002E0020000D000A000000000066006C00610073C0
:201B3800006800000063006C006B000000640065007600690063006500000000002000203B
:201B4800002000200020005100550041004C003D00300078005F005F005F005F000D000A72
:201B580000000000002000500049004E0043004F0055004E0054003D00300078005F005F3A
:201B6800005F005F000D000A000000000049004E005300540041005300500049004E003D92
:201B780000300078005F005F005F005F000D000A0000000000200020002000200046004C00
:201B8800004100530048003D00300078005F005F005F005F000D000A0000000000200020A9
:201B9800002000460041004D0049004C0059003D00300078005F005F005F005F000D000AD3
:201BA800000000000020002000200050004100520054004E004F003D00300078005F005F46
:201BB800005F005F000D000A00000000002000200043004C00410053005300490044003DB8
:201BC80000300078005F005F005F005F000D000A0000000000200020005200450056005342
:201BD8000049004F004E003D00300078005F005F005F005F000D000A0000000000530059E3
:201BE80000530043004C004B003D003100300030002E00300030004D0048007A000D000A2E
:201BF80000000000004C005300500043004C004B003D002000320035002E00300030004D65
:201C08000048007A000D000A000000000046006C00610073006800200041005000490020DB
:201C180000560065007200730069006F006E0020003000300030002E003000300030002E2A
:201C2800003000300030000D000A0000002000580042004F004F00540020007600000000B3
:201C380000200066006F007200200054004D0053003300320030004600320038003000306C
:201C4800003400780020005200650076003A007800200053004E003A00300078000000002E
:201C5800005F005F005F005F005F005F005F005F00000000000D000A00200045004300486D
:201C6800004F002000530074007500640069006F0020003C006500630068006F002E0078D4
:201C7800006A0074007500400067006D00610069006C002E0063006F006D003E002E0020B6
:201C88000041006C006C002000520069006700680074007300200052006500730065007271
:201C9800007600650064002E000D000A00000000002000000020002D003E002000000000DD
:201CA8000020007200650062006F006F00740069006E00670020002E002E002E0020000D5C
:201CB800000A000000200067006F0074006F00200061006400640072006500730073002003
:201CC80000300078005F005F005F005F005F005F00200074006F0020006500780065006352
:201CD800007500740065002E002E002E000D000A00000000002000730065007400200075FC
:201CE800007300650072002000610070007000200065006E00740072007900200074006FDC
:201CF800002000300078005F005F005F005F005F005F0020002E000D000A00000020004203
:201D08000061006400200075007300650072002000610070007000200065006E00740072DD
:201D1800007900210020000D000A000000200075007300650072002000610070007000207A
:201D28000065006E007400720079002000690073002000300078005F005F005F005F005FCA
:201D3800005F002E0020000D000A0000000D000A00300078005F005F005F005F005F005FCE
:201D480000200000005F005F005F005F002000000020004200610064002000410064007261
:201D580000650073007300210020000D000A000000200079006D006F00640065006D0020FD
:201D68000075007000640061007400650020006600690072006D0077006100720065002C2F
:201D78000020007000720065007300730020004100200074006F002000610062006F0072D6
:201D880000740020002E002E002E0020000D000A000000000020000D000A002000550070CA
:201D980000640061007400650020006600690072006D00770061007200650020004F004B56
:201DA80000210020000000000020000D000A002000460069006C00650020004E0061006DC7
:201DB8000065003A002000000020000D000A002000460069006C0065002000530069007A1F
:201DC8000065003A00200000000D000A002000200045006E00640020004100640064007233
:201DD800003A0020002000300078005F005F005F005F005F005F000D000A000000200065F3
:201DE800007200610073006500200053006500630074006F0072002000300078005F005F1A
:201DF800000000000020004000200041006400640072006500730073002000300078005F5E
:201E0800005F005F005F005F005F002E002E002E000000000020004F004B002E000D000A56
:201E18000000000000200042006C0061006E006B00200043006800650063006B002000453F
:201E280000720072006F0072002000300078005F005F005F005F000D000A00000020004614
:201E3800006C00610073006800200053007400610074007500730020004500720072006F86
:201E48000072002000300078005F005F005F005F000D000A00000000002000450072006175
:201E58000073006500200053006500630074006F00720020004500720072006F00720020B8
:201E680000300078005F005F005F005F000D000A0000000000200043006800650063006B21
:201E780000200046006C006100730068002000420061006E006B005F0020002E002E002E97
:201E8800000D000A0000000000200053006500630074006F0072002000300078005F005F0D
:201E98000000000000200040002000300078005F005F005F005F005F005F002000690073CC
:201EA8000000000000200065006D007000740079002E000D000A00000020006E006F007415
:201EB80000200065006D007000740079002C00200061006400640072003D00300078005F90
:201EC800005F005F005F005F005F000000200077006F00720064003D00300078005F005FA0
:201ED800005F005F000D000A000000000072006500610064000000000077007200690074B3
:201EE80000650000006C006F00610064000000000073006100760065000000000053006172
:201EF8000076006500200074006F00200049006E0074002E00200045004500500052004FD8
:201F0800004D002E002E002E000D000A00000000004C006F00610064002000660072006FE4
:201F1800006D00200049006E0074002E00200045004500500052004F004D002E002E002E51
:201F2800000D000A00000000002000770072006900740065002000300078005F005F005F52
:201F3800005F00200074006F0000000000200065006500700072006F006D0020006100649A
:201F480000640072006500730073002000300078005F005F005F005F0020002E002E002E6A
:201F5800000D000A00000000000D000A00300078005F005F005F005F00200020000026D4DD
:201F68000044003A002F00450045002F00540049002F00430032003000300030002F0043B0
:201F780000320030003000300057006100720065005F0031005F00300030005F00300036E4
:201F8800005F00300030002F006400720069007600650072006C00690062002F00660032C1
:201F980000380030003000340078002F006400720069007600650072006C00690062002FC4
:201FA80000630061006E002E006800000065006500650065006500000020004E006F00205B
:201FB8000075007300650072002000410070007000200066006F0075006E00640020002E7F
:201FC800002E002E0020000D000A000000200042006C0061006E006B00200046006C00612B
:201FD80000730068002100200052006500730065007400200065006E007400720079002058
:201FE8000074006F002000300078005F005F005F005F005F005F0020002E002E002E00202A
:201FF800000D000A00000000002000520075006E002000780062006F006F0074002000737E
:2020080000680065006C006C0020002E002E002E0020000D000A000097F4000097FC000014
:202018008D86000098400000984600008D26000098780000987E00008CA4000098AA000094
:2020280098B200008C58000098C6000098CC00008C15000098F6000098FC00008BE9000071
:20203800992A0000993000008BBB0000994E0000995600008B9F0000997A0000998000008A
:202048008B860000998E0000999600008AE5000099BA000099C000008A1E000099F40000C1
:2020580099F80000894C000000300031003200330034003500360037003800390041004272
:202068000043004400450046000000300031003200330034003500360037003800390041F8
:0E207800004200430044004500460000000CFA
:202080007625FF69000602008F000C021901B600BE001EC402008F000C0A19011EC4020083
:202090008F000C1219011EC49A009B00F4A70C07F4A60C06F4A90C0FF4A70C0EF4A60C17CE
:2020A000F4A80C16F5A90C045010F4A90C04F5A90C0C5010F4A90C0CF5A90C145010F4A921
:2020B0000C14F5A90C045020F4A90C04F5A90C0C5020F4A90C0CF5A90C145020F4A90C145F
:2020C0000006B2BDAABDBFA20F168BA9E8024BA1E8092001764081B2BDA20F167700770027
:2020D0008F000C00A8A9E70000080FA1E68A0000610B8F000C08A8A90FA161068F000C10D3
:2020E000A8A90FA160039A016003764820808F000C00A8A9E20300D10FA1610B8F000C08BF
:2020F000A8A90FA161068F000C10A8A90FA160039A016003764820808F000C002BF9A8A9ED
:202100002BF10FA1610B8F000C08A8A90FA161068F000C10A8A90FA160039A0160037648B1
:2021100020808F000C001AE10010A8A90FA1610B8F000C08A8A90FA161068F000C10A8A9F5
:202120000FA160039A016003764820801AE10020B2A9D4007640893D8F000C00A8A90FA1CE
:20213000610B8F000C08A8A90FA161068F000C10A8A90FA160039A016003764820801AE1B2
:20214000400086BE8BBE000676228F05F8000264767FFEFC520060079A00767FFEFE52009D
:202150006002761A0006FE02021DD400764087FE8F081A01A8A97640871ED401021D764041
:20216000886302001E42021D7640863BD403021D76408820D400021C764087FE8F0818014B
:20217000A8A97640871ED400021C7640886302001E42021C7640863B021CD40376408820C6
:2021800002011E42020C7640863B8F061806A8A97640871E02011E42020D7640863BD40338
:20219000020D764088208F061A06A8A97640871E02001E4202167640863BD40002167640CE
:2021A00088429A009B408F007F048F480C001EC4A0A97640871ED4010216764088630201D4
:2021B0001E4202207640863B9A0A9B467640871E02011E4202217640863BD4030221764089
:2021C000882028A9020A9B467640871E02011E4202107640863B8F080002A8A97640871E0D
:2021D00002011E4202117640863BD4030211764088208F080202A8A97640871E02001E4211
:2021E00002177640863BD4000217764088429A009B808F007F028F480E001EC4A0A9764057
:2021F000871ED401021776408863FE82000676228F05D3221AC400011AC400041AC400084D
:202200001AC400101AC400201ACC00011ACC00048F05D3261AC400011AC400021AC40004D3
:202210001AC400081AC400101AC400201AC400401AC400808F05D3281AC400011AC4000212
:202220001AC400041AC400081AC400101AC400201AC400408F05D32A1AC400011AC400027C
:202230008F05D32E1AC400018F05D3301AC400011AC400028F05D3321AC400011AC400026C
:202240008F05D3341AC400018F05D3361AC400011AC400028F05D33C1AC400011AC4000246
:202250001AC400048F05D33E1AC400011AC400021AC400041AC400081AC400101AC4002074
:202260001AC400408F05D3401AC400011AC400021AC400041AC400081AC400101AC4002026
:202270001AC400408F05D3421ACC00011ACC00028F05D3481AC400018F05D34A1AC400019A
:202280008F05D3461AC400011AC40002761A0006FE027622F5A970295068F4A97029761AEF
:2022900028A880019A947640850D76228F05D22C06C418A9FFF8910050021EC4761A28A995
:2022A00096809B98764085A21EA628A9E10028A805F50FA661037648208028A996809B9827
:2022B0007640891B1EA628A9784028A8017D0FA66103764820808F05FB008F45F800A8425D
:2022C000A0A9D40476409763764821F7FE820006B2BDFE0A8BA9764088D856BF0B41D409D2
:2022D000D50056BF0642B2A956BF01437640877B8F048000A8A90FA161068F04A000A8A951
:2022E0000FA160039A0160088F4003A28F009F64A0A97648208006C18F048000500E1EC104
:2022F000A8A90FA161068F04A000A8A90FA160039A0160088F4005378F009F64A0A9764828
:2023000020808AA1BE0202873100B600D500DC501AC40001C242D4001E44A946B2A9C34853
:2023100056BF0149764083D6BE030287B6008F000400D502C2421E44B2A9C346A848D40047
:2023200056BF0149764083D68F048000A8A90FA161068F04A000A8A90FA160039A0160081A
:202330008F4004368F009F64A0A9764820808F0480001AC10020A8A90FA161068F04A000A2
:20234000A8A90FA160039A0160088F000360A8A98F009F64764820801AC10200FE8A8BBE35
:202350000006761F02C5B2BD2B0176482083E80265F0E80230E18F000C00E80DE100E80A72
:202360000001A8A9764820C1F5A90C045020F4A90C04F5A90C0418A9FFEFF4A90C047622FF
:202370008F0093EE8F400D4CA8C5761A8F260107A8A9764086B79AF28F00A8017640975CAA
:20238000761F02A040016D1741016D1042016D094301761F02A056BC010056BD08006F0FA2
:20239000761F02A056BF04006F0A761F02A056BF02006F05761F02A056BF01007680020855
:2023A0008D40ACC0D50006A68AA1764083A58F0072008F41C20056BF01D92BD1A8C1A0A92A
:2023B0008AA17648248676228F0093BD8F400DC0A8C5761A28A909019B60764086B78D40D4
:2023C000A84076800208D5008AA106A6764083A58F0072108F41C20056BF02D92BD1A8C193
:2023D000A0A98AA17648248676228F00938C8F400DC4A8C5761A28A909039B62764086B761
:2023E000768002088F00AA80D50006A6764083A5761F02AA8F0480008F44800056BF040302
:2023F0002B02A800A0A9764822C876228F00947B8F400DC8A8C5761A28A909059B6476409C
:2024000086B7761F02C48F04800076800208D50018C4FFBE282AFFFF06A68F00AF007640B3
:2024100083A5761F02BC8F04A0008F44A00056BF08032B02A800A0A9764822C876228F007E
:20242000942E8F400DCCA8C5761A28A909079B66764086B7761F02C48F04A000282BFFFF81
:2024300018C4FFBE762300017623010029102920FF698BBE0006764822887648215376482E
:2024400021447648246376409744764085FA764088EF764823517640961B0006FE028F00B1
:2024500080008F4817F8A8428F080004764824A68F0097F48F48207FA8428F0817F876481B
:2024600024A6FE820006D400BE0F560308A480A908A7010018A70FFF8F4830FFA0A90DA7BD
:2024700083A980C58F40FFFFA0A90FA76006761F02E092A47C000006DC01000EFFE87640F2
:2024800096E0761F02E09A002B000006FF3283C428AB784028AA017D1EA656BF07C502008A
:2024900056BF03CDF61F561700A656BF02E592AB9CFF27A993ABCCAB00FFFFD797D596DD12
:2024A00056BF23CD76408E869A000006C5A4A0A983440FA7690B03A719018AA99287DC819D
:2024B0009685020019010FA460FA0006561F7622B9C028290068761A7648244E0040823AC7
:2024C000FFFFB80000000000FFFFA80000000001FFFFB13C00000000FFFEB12000000000E6
:2024D0000000FFFEB122000000000000FFFEB124000000000000FFFEB12600000000000076
:2024E000FFFEB128000000000000FFFEB13A000000000000FFFFB12A00000000FFFFB12B6B
:2024F00000000000FFFFB12C00000000FFFEB12E000000000000FFFEB136000083C60000E8
:0E250000FFFEB138000083C60000000000009E
:00000001FF
